{
  "contractName": "DappTokenSale",
  "abi": [
    {
      "inputs": [
        {
          "internalType": "contract DappToken",
          "name": "_tokenContract",
          "type": "address"
        },
        {
          "internalType": "uint256",
          "name": "_tokenPrice",
          "type": "uint256"
        }
      ],
      "payable": false,
      "stateMutability": "nonpayable",
      "type": "constructor"
    },
    {
      "anonymous": false,
      "inputs": [
        {
          "indexed": false,
          "internalType": "address",
          "name": "_buyer",
          "type": "address"
        },
        {
          "indexed": false,
          "internalType": "uint256",
          "name": "_amount",
          "type": "uint256"
        }
      ],
      "name": "Sell",
      "type": "event"
    },
    {
      "constant": true,
      "inputs": [],
      "name": "admin",
      "outputs": [
        {
          "internalType": "address payable",
          "name": "",
          "type": "address"
        }
      ],
      "payable": false,
      "stateMutability": "view",
      "type": "function"
    },
    {
      "constant": true,
      "inputs": [],
      "name": "tokenContract",
      "outputs": [
        {
          "internalType": "contract DappToken",
          "name": "",
          "type": "address"
        }
      ],
      "payable": false,
      "stateMutability": "view",
      "type": "function"
    },
    {
      "constant": true,
      "inputs": [],
      "name": "tokenPrice",
      "outputs": [
        {
          "internalType": "uint256",
          "name": "",
          "type": "uint256"
        }
      ],
      "payable": false,
      "stateMutability": "view",
      "type": "function"
    },
    {
      "constant": true,
      "inputs": [],
      "name": "tokensSold",
      "outputs": [
        {
          "internalType": "uint256",
          "name": "",
          "type": "uint256"
        }
      ],
      "payable": false,
      "stateMutability": "view",
      "type": "function"
    },
    {
      "constant": false,
      "inputs": [
        {
          "internalType": "uint256",
          "name": "_numberOfTokens",
          "type": "uint256"
        }
      ],
      "name": "buyTokens",
      "outputs": [],
      "payable": true,
      "stateMutability": "payable",
      "type": "function"
    },
    {
      "constant": false,
      "inputs": [],
      "name": "endSale",
      "outputs": [],
      "payable": false,
      "stateMutability": "nonpayable",
      "type": "function"
    }
  ],
  "bytecode": "0x608060405234801561001057600080fd5b506040516106823803806106828339818101604052604081101561003357600080fd5b508051602090910151600080546001600160a01b03199081163317909155600180546001600160a01b0390941693909116929092179091556002556106058061007d6000396000f3fe6080604052600436106100555760003560e01c80633610724e1461005a578063380d831b14610079578063518ab2a81461008e57806355a373d6146100b55780637ff9b596146100e6578063f851a440146100fb575b600080fd5b6100776004803603602081101561007057600080fd5b5035610110565b005b34801561008557600080fd5b5061007761033e565b34801561009a57600080fd5b506100a3610534565b60408051918252519081900360200190f35b3480156100c157600080fd5b506100ca61053a565b604080516001600160a01b039092168252519081900360200190f35b3480156100f257600080fd5b506100a3610549565b34801561010757600080fd5b506100ca61054f565b61011c8160025461055e565b3414610166576040805162461bcd60e51b8152602060048201526014602482015273125b98dbdc9c9958dd081d985b1d59481cd95b9d60621b604482015290519081900360640190fd5b600154604080516370a0823160e01b8152306004820152905183926001600160a01b0316916370a08231916024808301926020929190829003018186803b1580156101b057600080fd5b505afa1580156101c4573d6000803e3d6000fd5b505050506040513d60208110156101da57600080fd5b5051101561022f576040805162461bcd60e51b815260206004820152601f60248201527f496e73756666696369656e7420746f6b656e7320696e20636f6e747261637400604482015290519081900360640190fd5b6001546040805163a9059cbb60e01b81523360048201526024810184905290516001600160a01b039092169163a9059cbb916044808201926020929091908290030181600087803b15801561028357600080fd5b505af1158015610297573d6000803e3d6000fd5b505050506040513d60208110156102ad57600080fd5b50516102f8576040805162461bcd60e51b8152602060048201526015602482015274151bdad95b881d1c985b9cd9995c8819985a5b1959605a1b604482015290519081900360640190fd5b6003805482019055604080513381526020810183905281517f5e5e995ce3133561afceaa51a9a154d5db228cd7525d34df5185582c18d3df09929181900390910190a150565b6000546001600160a01b0316331461039d576040805162461bcd60e51b815260206004820152601760248201527f4f6e6c792061646d696e2063616e20656e642073616c65000000000000000000604482015290519081900360640190fd5b600154604080516370a0823160e01b815230600482015290516000926001600160a01b0316916370a08231916024808301926020929190829003018186803b1580156103e857600080fd5b505afa1580156103fc573d6000803e3d6000fd5b505050506040513d602081101561041257600080fd5b5051905080156104f657600154600080546040805163a9059cbb60e01b81526001600160a01b039283166004820152602481018690529051919093169263a9059cbb9260448083019360209390929083900390910190829087803b15801561047957600080fd5b505af115801561048d573d6000803e3d6000fd5b505050506040513d60208110156104a357600080fd5b50516104f6576040805162461bcd60e51b815260206004820152601c60248201527f546f6b656e2072657475726e20746f2061646d696e206661696c656400000000604482015290519081900360640190fd5b600080546040516001600160a01b03909116914780156108fc02929091818181858888f19350505050158015610530573d6000803e3d6000fd5b5050565b60035481565b6001546001600160a01b031681565b60025481565b6000546001600160a01b031681565b60008115806105795750508082028282828161057657fe5b04145b6105ca576040805162461bcd60e51b815260206004820152601760248201527f4d756c7469706c69636174696f6e206f766572666c6f77000000000000000000604482015290519081900360640190fd5b9291505056fea265627a7a7231582000cec2edcbc5f1f88f34db79e46485ba5728016ddce0d21c27d6ec9467b97ddc64736f6c63430005100032",
  "source": "// SPDX-License-Identifier: MIT\npragma solidity ^0.5.0;\n\nimport \"./DappToken.sol\";\n\n/**\n * @title DappTokenSale\n * @dev Contract to handle the crowdsale of DappToken.\n */\ncontract DappTokenSale {\n    address payable public admin;\n    DappToken public tokenContract;\n    uint256 public tokenPrice;\n    uint256 public tokensSold;\n\n    event Sell(address _buyer, uint256 _amount);\n\n    /**\n     * @dev Constructor for DappTokenSale.\n     * @param _tokenContract Address of the DappToken contract.\n     * @param _tokenPrice Price of each token in wei.\n     */\n    constructor(DappToken _tokenContract, uint256 _tokenPrice) public {\n        admin = msg.sender;\n        tokenContract = _tokenContract;\n        tokenPrice = _tokenPrice;\n    }\n\n    /**\n     * @dev Internal function for safe multiplication.\n     */\n    function multiply(uint256 x, uint256 y) internal pure returns (uint256 z) {\n        require(y == 0 || (z = x * y) / y == x, \"Multiplication overflow\");\n    }\n\n    /**\n     * @dev Facilitates token buying.\n     * @param _numberOfTokens Number of tokens to buy.\n     */\n    function buyTokens(uint256 _numberOfTokens) public payable {\n        require(msg.value == multiply(_numberOfTokens, tokenPrice), \"Incorrect value sent\");\n        require(tokenContract.balanceOf(address(this)) >= _numberOfTokens, \"Insufficient tokens in contract\");\n        require(tokenContract.transfer(msg.sender, _numberOfTokens), \"Token transfer failed\");\n\n        tokensSold += _numberOfTokens;\n\n        emit Sell(msg.sender, _numberOfTokens);\n    }\n\n    /**\n     * @dev Ends the token sale, transfers remaining tokens and balance to admin.\n     */\n    function endSale() public {\n        require(msg.sender == admin, \"Only admin can end sale\");\n        \n        // Transfer remaining tokens back to admin\n        uint256 remainingTokens = tokenContract.balanceOf(address(this));\n        if (remainingTokens > 0) {\n            require(tokenContract.transfer(admin, remainingTokens), \"Token return to admin failed\");\n        }\n\n        // Transfer contract's ether balance to admin\n        admin.transfer(address(this).balance);\n    }\n}\n",
  "sourcePath": "/app/contracts/DappTokenSale.sol",
  "compiler": {
    "name": "solc",
    "version": "0.5.16+commit.9c3226ce.Emscripten.clang"
  },
  "schemaVersion": "3.4.16",
  "updatedAt": "2026-05-01T06:31:20.605Z",
  "networkType": "ethereum",
  "devdoc": {
    "details": "Contract to handle the crowdsale of DappToken.",
    "methods": {
      "buyTokens(uint256)": {
        "details": "Facilitates token buying.",
        "params": {
          "_numberOfTokens": "Number of tokens to buy."
        }
      },
      "constructor": {
        "details": "Constructor for DappTokenSale.",
        "params": {
          "_tokenContract": "Address of the DappToken contract.",
          "_tokenPrice": "Price of each token in wei."
        }
      },
      "endSale()": {
        "details": "Ends the token sale, transfers remaining tokens and balance to admin."
      }
    },
    "title": "DappTokenSale"
  },
  "userdoc": {
    "methods": {}
  }
}